:020000040800F2
:1000000000800020957D0008AD1D0008AF1D000890
:10001000B11D0008B31D0008B51D00080000000058
:10002000000000000000000000000000B71D0008F4
:10003000B91D000800000000BB1D0008BD1D000820
:10004000E57D0008E57D0008E57D0008E57D000808
:10005000E57D0008E57D0008E57D0008E57D0008F8
:10006000E57D0008E57D0008E57D0008E57D0008E8
:10007000E57D0008E57D0008E57D0008E57D0008D8
:10008000E57D000800000000E57D0008E57D000832
:10009000C51D0008E57D0008E57D0008E57D000838
:1000A000E57D0008E57D0008E57D0008E57D0008A8
:1000B000E57D0008E57D0008E57D0008E57D000898
:1000C000E57D0008E57D0008E57D0008E57D000888
:1000D000E57D0008E57D0008E57D0008E57D000878
:1000E000E57D0008E57D0008E57D0008E57D000868
:1000F000E57D0008E57D0008E57D000800000000C2
:1001000000000000E57D000800000000E57D00081B
:10011000E57D000800000000E57D0008E57D0008A1
:10012000E57D0008E57D0008E57D0008E57D000827
:10013000E57D00080000000000000000E57D0008EB
:10014000E57D0008E57D00080000000000000000DB
:10015000000000000000000000000000000000009F
:10016000000000000000000000000000E57D000825
:10017000E57D000800000000000000000000000015
:1001800000000000E57D0008000000000000000005
:10019000000000000000000000000000000000005F
:1001A0000000000000000000E57D0008E57D00087B
:1001B000E57D0008E57D0008E57D00080000000001
:1001C00000000000E57D00080000000000000000C5
:0801D000E57D0008E57D000853
:1001E0000348044B834202D0034B03B118477047C6
:1001F000E8010020E8010020000000000548064951
:100200000B1AD90F01EBA301491002D0034B03B124
:1002100018477047E8010020E801002000000000B6
:1002200010B5064C237843B9FFF7DAFF044B13B13E
:100230000448AFF300800123237010BDE8010020C3
:1002400000000000E87D000808B5044B1BB104491C
:100250000448AFF30080BDE80840CFE7000000008D
:10026000EC010020E87D0008014B1868704700BFD2
:100270000000002070B50D4E0D4D761BB61006D057
:10028000002455F8043B01349847A642F9D1094EA1
:10029000094D761B07F0A8FDB61006D0002455F8CE
:1002A000043B01349847A642F9D170BDE87E0008AE
:1002B000E87E0008EC7E0008E87E0008830730B581
:1002C00048D0541E002A3FD0CAB2034601E0013C88
:1002D0003AD303F8012B9D07F9D1032C2DD9CDB2C8
:1002E00045EA05250F2C45EA054536D9A4F110024B
:1002F00022F00F0C03F1200EE6444FEA121C03F12A
:10030000100242E9045542E9025510327245F8D113
:100310000CF1010214F00C0F03EB021204F00F0CAD
:1003200013D0ACF1040323F003030433134442F865
:10033000045B9342FBD10CF003042CB1CAB21C4401
:1003400003F8012B9C42FBD130BD64461346002CC0
:10035000F4D1F9E703461446BFE71A46A446E0E79E
:1003600008B410B5002A9DB0044633DB4FF4027385
:10037000ADF814300291069120AB17D0013A4FF638
:10038000FF7104920792ADF816101F9A019302A90B
:1003900000F048F9421C01DA8B232360029B002203
:1003A0001A701DB0BDE8104001B070474FF6FF71E4
:1003B00004920792ADF816101F9A019302A900F05B
:1003C00031F9431C01DA8B2323601DB0BDE81040D6
:1003D00001B070478B2303604FF0FF30F5E700BF9B
:1003E0000CB410B51F4B00291C689CB035DB4FF4D2
:1003F0000273ADF81430029006901FAB18D001398B
:100400004FF6FF7204910791ADF8162002A91E9ACB
:100410000193204600F006F9421C01DA8B23236089
:10042000029B00221A701CB0BDE8104002B0704759
:100430004FF6FF7204910791ADF8162002A91E9A9B
:100440000193204600F0EEF8431C01DA8B23236071
:100450001CB0BDE8104002B070478B2323604FF002
:10046000FF30F5E7000000202DE9F0478F689F423C
:100470000C461D46164638D88246888910F4906F7F
:100480000ED108683D462A46314600F0C3FCA268FA
:100490002368D21B2B44A26023600020BDE8F087B4
:1004A0004B69096903EB4308236808EBD878A3EB91
:1004B00001096B1C4FEA68084B444345424684BF20
:1004C00098464246430513D51146504600F080FD3C
:1004D000074608B321694A4600F002FCA38923F4C9
:1004E000906343F08003A38107E008681F46CAE7D2
:1004F000504600F0C7FD074650B107EB0900A8EBD6
:1005000009032761C4F81480A36020602F46BAE76E
:100510002169504600F0FAFC0C23CAF80030A38988
:1005200043F040034FF0FF30A381B7E72DE9F04FD0
:10053000936883B09146002B6ED017688D68804613
:100540000C460868083744E0A38913F4906F2ED056
:10055000D4E90415A0EB010A05EB450505EBD575BB
:100560000AEB06006D100130A8422A4684BF0546FA
:100570002A465B0537D51146404600F029FD002884
:100580003BD052462169019000F0AAFBA289019B51
:1005900022F4906242F08002A281A5EB0A0203EBF2
:1005A0000A006561A260236120603546B246594663
:1005B000524600F02FFCA068D9F808102368451BAC
:1005C0008E1B03EB0A00A5602060C9F808601EB30B
:1005D000083757E902B6002EFAD0B542AA46B3D979
:1005E0003546B246E3E7404600F04CFD034600289E
:1005F000D3D12169404600F089FC0C23C8F80030B3
:10060000A389002243F040034FF0FF30A381C9E9E2
:10061000012203B0BDE8F08F0020C9F8040003B048
:10062000BDE8F08F2DE9F04F92468A8915069DB0FE
:10063000884681461C4603D50A69002A00F0EF80EF
:10064000002209929AF800307E4D039420228DF802
:10065000292030228DF82A200126002B72D0544602
:1006600003E014F8013F002B76D0252BF9D1B4EB31
:100670000A0B74D12278002A64D000234FF0FF3295
:10068000CDE90523049307938DF853301A93013471
:1006900004E0049A06FA03F313430493A2460522E6
:1006A00014F8011B284600F0CBFA431B0028F0D1B8
:1006B000049BD80644BF20228DF8532019079AF8CE
:1006C000001044BF2B228DF853202A2954D1039ABD
:1006D00011680432002903927CDB07919AF801101B
:1006E0000AF1010A2E2959D0574C0322204600F066
:1006F000A7FA40B1049B001B402404FA00F0034316
:1007000004930AF1010A1AF8011B50488DF82810C9
:10071000062200F095FA002862D04D4B002B52D0F3
:1007200003AA00924B4B424604A94846AFF300800F
:1007300007467A1C06D0099B3B4409939AF800307F
:10074000002B8CD1B8F80C305B0654BF09984FF0E1
:10075000FF301DB0BDE8F08FB4EB0A0BF2D05B4662
:10076000524641464846FFF77FFE0130EAD0099BDA
:1007700022785B4409937EE7A1F13002092AB1D8BF
:10078000079B1AF8011F03EB830302EB4303A1F15C
:100790003002092AF5D92E290793A5D19AF801101C
:1007A0002A2927D1039B9AF802101A68059204336C
:1007B000002A0AF102000393B8BF4FF0FF338246CC
:1007C000B8BF059390E7039B073323F00703083373
:1007D0000393B0E7494243F00203079104937DE796
:1007E00003AA00921B4B424604A9484600F0CAF8EF
:1007F00007469EE7A1F130020023092A05930AF17A
:10080000010A3FF671AF1AF8011F03EB830302EBF5
:100810004303A1F13002092AF5D9059364E7402189
:1008200000F0D6FBC8F80000C8F8100018B140224C
:10083000C8F8142004E70C23C9F800304FF0FF304B
:1008400087E700BFA47E0008AC7E0008B07E0008E9
:1008500000000000690400082DE9F84F92461F4689
:100860000A698B68DDF828909A42B8BF1A46CAF820
:10087000002091F843300C46064613B10132CAF805
:100880000020226891065DD5DAF800300233CAF8FC
:100890000030226812F0060F11461ED1E168CB1A13
:1008A000002BD8BF114618DD04F1190B4FF00008DA
:1008B00005E0E568DAF80030ED1A45450CDD012366
:1008C0005A4639463046C847013008F10108F0D190
:1008D0004FF0FF30BDE8F88F216894F84330003BBB
:1008E00018BF01238A060AD5E1185A1C302081F866
:1008F0004300224494F8451082F84310023304F177
:10090000430239463046C8470130E1D0236803F03E
:100910000603042B1DD0A3682269934225DD4FF006
:1009200000089B1A98441A34002501E045451CDA5A
:100930000123224639463046C847013005F10105FA
:10094000F4D1C5E712F0060F12D0003B18BF012307
:10095000D5E7DAF80030E1682269C91AA368934242
:1009600021EAE178DDDC0029DDDC0020BDE8F88F3C
:10097000E168DAF80030CB1A002BD8BF114693DCBF
:10098000ABE700BF2DE9F0470C4684B09046227ECD
:100990000C990746994604F14300002A33D0A2F18E
:1009A0005803DDB2202D67D8202B65D8DFE813F07F
:1009B000DE0064006400640064006400640064009D
:1009C000640064006400A3006E00640064006400BE
:1009D00064006E00640064006400640021007F0015
:1009E000C00064006400AE0064007F006400640026
:1009F000E50023681A0640F104810B6862691D1D39
:100A00000D601B681A60002382462361CDF80090B8
:100A1000434603AA21463846FFF71EFF013020D087
:100A20002369524641463846C847013019D02368E9
:100A3000E068039E9B0719D5831B002B16DD04F18C
:100A4000190A002504E0E068039E831BAB420DDD1C
:100A50000123524641463846C847013005F1010599
:100A6000F1D14FF0FF3004B0BDE8F087B042B8BF1D
:100A7000304604B0BDE8F087012384F842202361AA
:100A800004F1420A002384F84330BFE723681A06C2
:100A900002D45E0600F1C1800D682A6804350D603D
:100AA0001546002A6BDBDFF884C10A2610E02368B4
:100AB0001D0640F19C800B681D1D0D601D68DFF850
:100AC0006CC16F2A0CBF08260A26002384F8433025
:100AD0006268A260002A7FDB236823F0040323609E
:100AE000002D5BD1002A79D18246082E65D0A0EB7B
:100AF0000A0020618AE70B680122186804330B6042
:100B000004F1420A84F842002261BBE70B68626884
:100B1000181D0860D3F800A00021504600F090F89E
:100B2000002800F08180A0EB0A0060602061A9E746
:100B3000236843F0200323607822DFF8F4C084F8B0
:100B400045200A68151D0D601D0643D4590641D580
:100B50001588DE0744BF43F020032360002D44D1F5
:100B6000236823F0200323601026AEE7582384F87F
:100B70004530DFF8B8C02368E3E72368DCE7626844
:100B8000A2602D21002AC5F1000584F8431002DB84
:100B900023F004032360DFF894C00A268246B5FBE5
:100BA000F6F306FB13512A461CF801100AF8011D42
:100BB000B2421D46F3D2082E99D12368D90796D5A3
:100BC000626823699A4292DC30230AF8013C0AF1F8
:100BD000FF3A8CE71568BCE7002DDFD19CF80030A8
:100BE00084F8423004F1420A7FE710266DE713F0E3
:100BF000400F0B6803F104050D600CBF1D681D88D4
:100C00005DE713F0400F0B68626903F104050D60A6
:100C10001B6814BF1A801A60F5E60A68B2F9005022
:100C200004320A602A463CE760687FE7B87E000825
:100C3000CC7E000800000000000000000000000062
:100C400001F0FF01102A2BDB10F0070F08D010F87D
:100C5000013B013A8B422DD010F0070F42B3F6D181
:100C6000F0B441EA012141EA014122F007047FF09A
:100C700000070023F0E80256083C85EA010586EAF1
:100C8000010685FA47F5A3FA87F586FA47F6A5FA2D
:100C900087F68EB9EED1F0BC01F0FF0102F0070239
:100CA00032B110F8013B013A83EA010313B1F8D1E4
:100CB0000020704701387047002D06BF35460338C5
:100CC000073815F0010F07D1013015F4807F02BFFE
:100CD000013015F4C03F0130F0BC0138704700BF4F
:100CE000844641EA000313F003036DD1403A41D337
:100CF00051F8043B40F8043B51F8043B40F8043BF6
:100D000051F8043B40F8043B51F8043B40F8043BE5
:100D100051F8043B40F8043B51F8043B40F8043BD5
:100D200051F8043B40F8043B51F8043B40F8043BC5
:100D300051F8043B40F8043B51F8043B40F8043BB5
:100D400051F8043B40F8043B51F8043B40F8043BA5
:100D500051F8043B40F8043B51F8043B40F8043B95
:100D600051F8043B40F8043B51F8043B40F8043B85
:100D7000403ABDD2303211D351F8043B40F8043B25
:100D800051F8043B40F8043B51F8043B40F8043B65
:100D900051F8043B40F8043B103AEDD20C3205D335
:100DA00051F8043B40F8043B043AF9D2043208D02D
:100DB000D2071CBF11F8013B00F8013B01D30B889F
:100DC00003806046704700BF082A13D38B078DD07D
:100DD00010F003038AD0C3F10403D21ADB071CBF4F
:100DE00011F8013B00F8013B80D331F8023B20F8B9
:100DF000023B7BE7043AD9D3013A11F8013B00F8F2
:100E0000013BF9D20B7803704B7843708B78837079
:100E10006046704788420DD98B1883420AD900EB8F
:100E2000020CBAB1624613F801CD02F801CD994225
:100E3000F9D170470F2A0ED8034602F1FF3C4AB1A0
:100E40000CF1010C013B8C4411F8012B03F8012F2C
:100E50006145F9D1704740EA01039B0750D1A2F1E7
:100E6000100370B501F1200C23F00F0501F1100EF5
:100E700000F11004AC441B095EF8105C44F8105CEF
:100E80005EF80C5C44F80C5C5EF8085C44F8085CA6
:100E90005EF8045C44F8045C0EF1100EE64504F1C3
:100EA0001004E9D1013312F00C0F01EB031102F031
:100EB0000F0400EB031327D0043C24F003064FEA91
:100EC000940C1E441C1F8E465EF8045B44F8045FBD
:100ED000B442F9D10CF1010402F0030203EB8403E4
:100EE00001EB840102F1FF3C4AB10CF1010C013B22
:100EF0008C4411F8012B03F8012F6145F9D170BD25
:100F000002F1FF3C03469BE72246EBE7002958D05D
:100F100030B551F8043C83B0002BA1F10404B8BFF4
:100F2000E418019000F0E8F8284A0198136833B1FA
:100F3000A3420DD9216804EB010C63452FD06360F7
:100F4000146003B0BDE8304000F0D8B8A34210D818
:100F50001A465B68002BF9D1116802EB010C64455D
:100F600019D02FD36360546003B0BDE8304000F067
:100F7000C5B8116802EB010CA44516D022D821682F
:100F800004EB010C6345EDD11D685B682944C4E99D
:100F900000135460D5E7236819441160D1E71D6838
:100FA0005B682944C4E90013CAE724682144541843
:100FB000A3421160C5D1D3E900432144C2E9001323
:100FC000BFE770470C230360BBE700BF04020020AB
:100FD000F8B5CD1C25F0030508350C2D38BF0C25C0
:100FE000002D064623DBA94221D8254F00F084F8C6
:100FF0003A6822B3144603E063682246FBB11C46FC
:1010000023685B1BF8D40B2B15D8636894420CBF84
:101010003B605360304600F071F804F10B00231D73
:1010200020F00700C21A01D01B1AA350F8BD0C23F0
:1010300033600020F8BD23601C442560EAE779682E
:10104000C9B12946304600F045F8431C0CD0C41CF9
:1010500024F00304A04205D0211A304600F03AF8EB
:10106000013001D02560D5E70C233046336000F015
:1010700045F80020F8BD304600F02CF87860E0E735
:1010800004020020F8B51446F9B1CAB106460D466F
:1010900000F036F8A04202D32F463846F8BD21466C
:1010A0003046FFF795FF07460028F6D0224629462E
:1010B000FFF716FE30462946FFF728FF3846F8BDF1
:1010C0002746FFF723FF3846F8BDBDE8F840114634
:1010D000FFF77EBF38B5074D0022044608462A6058
:1010E00006F034FE431C00D038BD2B68002BFBD02B
:1010F000236038BD0C020020704700BF704700BF5E
:1011000051F8040C0028A0F10400BCBF0B58C01813
:10111000704700BF53B94AB9002908BF00281CBF57
:101120004FF0FF314FF0FF3000F074B9ADF1080C13
:101130006DE904CE00F006F8DDF804E0DDE90223F5
:1011400004B070472DE9F047089D04468E46002BF9
:101150004DD18A42944669D9B2FA82F252B101FA6B
:1011600002F3C2F1200120FA01F10CFA02FC41EA7B
:10117000030E94404FEA1C48210CBEFBF8F61FFA00
:101180008CF708FB16E341EA034306FB07F199429B
:101190000AD91CEB030306F1FF3080F01F8199424E
:1011A00040F21C81023E63445B1AA4B2B3FBF8F028
:1011B00008FB103344EA034400FB07F7A7420AD9AF
:1011C0001CEB040400F1FF3380F00A81A74240F2D7
:1011D00007816444023840EA0640E41B00261DB142
:1011E000D4400023C5E900433146BDE8F0878B4277
:1011F00009D9002D00F0EF800026C5E90001304636
:101200003146BDE8F087B3FA83F6002E4AD18B420F
:1012100002D3824200F2F980841A61EB03030120B9
:101220009E46002DE0D0C5E9004EDDE702B9FFDEA5
:10123000B2FA82F2002A40F09280A1EB0C014FEA50
:101240001C471FFA8CFE0126200CB1FBF7F307FBAD
:10125000131140EA01410EFB03F0884208D91CEB50
:10126000010103F1FF3802D2884200F2CB804346ED
:10127000091AA4B2B1FBF7F007FB101144EA0144CC
:101280000EFB00FEA64508D91CEB040400F1FF315B
:1012900002D2A64500F2BB800846A4EB0E0440EA49
:1012A00003409CE7C6F12007B34022FA07FC4CEA52
:1012B000030C20FA07F401FA06F31C43F9404FEA45
:1012C0001C4900FA06F3B1FBF9F8200C1FFA8CFE5A
:1012D00009FB181140EA014108FB0EF0884202FAAE
:1012E00006F20BD91CEB010108F1FF3A80F088806F
:1012F000884240F28580A8F102086144091AA4B22C
:10130000B1FBF9F009FB101144EA014100FB0EFEAC
:101310008E4508D91CEB010100F1FF346CD28E45DB
:101320006AD90238614440EA0840A0FB0294A1EB6C
:101330000E01A142C846A64656D353D05DB1B3EBC9
:10134000080261EB0E0101FA07F722FA06F3F140F9
:101350001F43C5E9007100263146BDE8F087C2F1A0
:101360002003D8400CFA02FC21FA03F39140014318
:101370004FEA1C471FFA8CFEB3FBF7F007FB103651
:101380000B0C43EA064300FB0EF69E4204FA02F4FD
:1013900008D91CEB030300F1FF382FD29E422DD950
:1013A000023863449B1B89B2B3FBF7F607FB163385
:1013B00041EA034106FB0EF38B4208D91CEB010105
:1013C00006F1FF3816D28B4214D9023E6144C91A85
:1013D00046EA004638E72E46284605E70646E3E695
:1013E0001846F8E64B45A9D2B9EB020864EB0C0E9F
:1013F0000138A3E74646EAE7204694E74046D1E7AE
:10140000D0467BE7023B614432E7304609E764445B
:10141000023842E7704700BF72B6FEE700B595B0EC
:101420003822002106A8FEF749FF0023019302930A
:101430000393049305934FF4007003F0A9FD0A236E
:1014400006934FF48073099340230A9301220B9271
:1014500002230D930E930F920C22109211930422EB
:101460001292139306A802F055FF80B90F2301933F
:1014700001230293002103914FF4E063049305914B
:1014800001A803F0FDF920B915B05DF804FBFFF7E2
:10149000C3FFFFF7C1FF000070B5A6B002F0D8FE91
:1014A000FFF7BCFF00F040F800F0E2F800F030F980
:1014B00000F01EFA00F060FB00F044FC00F080FA3F
:1014C00000F004FB00F09EFC00F0C2FB05238DF849
:1014D00017300024124D4FF47A76009601230DF157
:1014E00017021821284604F087FD0096012302AA5E
:1014F0001821284604F052FE651C9DF80830009320
:101500002346084A802106A8FEF76AFF81B206A892
:1015100000F064FD4FF4C87002F0BCFE2C46D9E721
:1015200000030020007E00082DE9F0438BB000246A
:1015300005940694079408940994494BDA6C42F098
:101540000402DA64DA6C02F004020092009ADA6CA7
:1015500042F02002DA64DA6C02F020020192019A71
:10156000DA6C42F00102DA64DA6C02F001020292F3
:10157000029ADA6C42F00202DA64DA6C02F00202D9
:101580000392039ADA6C42F00802DA64DB6C03F02F
:1015900008030493049B334F22464AF2A241384683
:1015A00003F0F0FC304E22464FF47071304603F0E9
:1015B000E9FC22464FF400414FF0904003F0E2FC7A
:1015C000DFF8A88022460421404603F0DBFC4FF4FC
:1015D000604305930694079405A9304603F0E8FBA1
:1015E0004FF00409CDF814900694079405A94FF024
:1015F000904003F0DDFB4AF2A243059301250695D6
:101600000794089405A9384603F0D2FB40F604235A
:1016100005930694079405A9384603F0C9FB4FF4D7
:101620007073059306950794089405A9304603F056
:10163000BFFB4FF40043059306950794089405A952
:101640004FF0904003F0B4FBCDF81490069507944A
:10165000089405A9404603F0ABFB0BB0BDE8F0834E
:10166000001002400004004800080048000C004838
:1016700010B58CB0002409940A940B9420222146C2
:1016800001A8FEF71BFE20484FF0A04303604FF473
:10169000003343608460C460046144610423836157
:1016A000047744770123036280F82440C462046312
:1016B00080F83840C46380F8404003F05BFDC8B94F
:1016C0000023099309A9104804F0E0F8A8B90F4BCA
:1016D000019306230293002303937F2204920422A2
:1016E000059206930DEB0201074803F05DFE38B941
:1016F0000CB010BDFFF790FEE2E7FFF78DFEE6E7C6
:10170000FFF78AFEF4E700BF140200200200300455
:1017100000B589B0202200216846FEF7CFFD1B48A6
:101720001B4B03604FF40033436000238360C360AE
:1017300003614361042282610377437701220262DD
:1017400080F82430C362036380F83830C36380F8C4
:10175000403003F00FFD90B90E4B00930623019328
:10176000002302937F220392042204920593694688
:10177000064803F019FE28B909B05DF804FBFFF72D
:101780004BFEE9E7FFF748FEF6E700BF80020020C6
:10179000000100500008302E30B59DB004460021F5
:1017A0001791189119911A911B91442206A8FEF7DE
:1017B00085FD2368B3F1A04F04D0484A934259D025
:1017C0001DB030BD4FF4004306934FF00053159306
:1017D00006A803F07BF900283ED1414A1368013383
:1017E0001360012B3BD03F4BDA6C42F00402DA6409
:1017F000DA6C02F004020192019ADA6C42F0010202
:10180000DA64DA6C02F001020292029ADA6C42F0B7
:101810000202DA64DB6C03F002030393039B0F23E1
:101820001793032518950024199417A92E4803F03F
:10183000BFFA0B2317931895199417A94FF09040EE
:1018400003F0B6FA45F2010317931895199417A9F6
:10185000264803F0ADFAB3E7FFF7DEFDBDE7214B05
:10186000DA6C42F40052DA64DB6C03F40053009348
:10187000009BB8E74FF4004306934FF000531593D5
:1018800006A803F023F9D0B9154A13680133136091
:10189000012B17D0134BDA6C42F00402DA64DB6CD4
:1018A00003F004030593059B202317930323189348
:1018B0000023199317A90C4803F07AFA80E7FFF781
:1018C000ABFDE1E7074BDA6C42F40052DA64DB6C03
:1018D00003F400530493049BDCE700BF00010050B5
:1018E00010020020001002400008004800040048D8
:1018F00000B58DB0302200216846FEF7DFFC1548A8
:10190000154B036004F04CF8D8B902230093002271
:101910008DF804208DF8052002920392049205921E
:1019200001230693079269460A4804F04BF858B918
:1019300010226946074804F045F840B90DB05DF83B
:1019400004FBFFF769FDE0E7FFF766FDF0E7FFF74F
:1019500063FDF3E7EC0200200008005000B589B0F9
:101960000023039304930593069307930268134B94
:101970009A4202D009B05DF804FB03F1704303F50D
:101980000233DA6C42F48032DA64DA6C02F48032C8
:101990000192019ADA6C42F00102DA64DB6C03F026
:1019A00001030293029B302303930323049303A9AF
:1019B0004FF0904003F0FCF9DCE700BF0008005056
:1019C00008B51348134B036040F203134360002330
:1019D00083600122C260036143618361C36103626A
:1019E00004F0A5FA50B90021094804F095FC40B96B
:1019F0000021074804F0BEFC30B908BDFFF70CFD1C
:101A0000F1E7FFF709FDF3E7FFF706FDF5E700BF94
:101A10000003002000580040F0B59BB004460021B0
:101A200015911691179118911991442204A8FEF767
:101A300045FC2268224B9A4201D01BB0F0BD8023A6
:101A4000049304A803F042F8002835D11D4CE36C40
:101A500043F00403E364E36C03F004030193019B8C
:101A6000E36C43F00103E364E36C03F001030293CE
:101A7000029B10231593122716970025179518958A
:101A80000426199615A9104803F092F94FF48073B3
:101A90001593169717951895199615A94FF090401C
:101AA00003F086F9A36D43F48003A365A36D03F4EB
:101AB00080030393039BC0E7FFF7AEFCC6E700BFBC
:101AC00000580040001002400008004808B51048C7
:101AD000104B0360002343607F228260FF22C260BC
:101AE0000361436183614FF08042C261036204F08D
:101AF000D0FC38B906224FF6FF71054804F019FDF5
:101B000018B908BDFFF788FCF4E7FFF785FCF8E794
:101B1000540300200028004010B592B0044644222F
:101B2000002101A8FEF7CAFB2268114B9A4201D09E
:101B300012B010BD4FF4002301934FF400731193C2
:101B400001A802F0C3FF80B90A4BD3F8902042F4F9
:101B50000042C3F890209A6D42F480629A659B6DB2
:101B600003F480630093009BE2E7FFF755FCEBE78B
:101B7000002800400010024008B51048104B0360D8
:101B80004FF482734360002383604FF44072C2605D
:101B9000036143614FF400728261C3610362436277
:101BA00083620722C26203630823436304F010FDCB
:101BB00000B908BDFFF730FCFBE700BF7C03002045
:101BC0000030014030B589B000230393049305939E
:101BD0000693079302681C4B9A4201D009B030BDAE
:101BE00003F560431A6E42F480521A661A6E02F4CC
:101BF00080520092009ADA6C42F00102DA64DA6CE8
:101C000002F001020192019ADA6C42F00202DA64F7
:101C1000DB6C03F002030293029BC02303930225B3
:101C200004950524079403A94FF0904003F0C0F8F1
:101C3000082303930495002305930693079403A9AF
:101C4000024803F0B5F8C9E700300140000400483D
:101C500008B51748174B03604FF416534360002331
:101C60008360C36003610C2242618361C3610362CC
:101C70004362836205F009F870B900210C4805F051
:101C80007CF860B900210A4805F09CF850B9084872
:101C900005F054F848B908BDFFF7BEFBEDE7FFF7C4
:101CA000BBFBEFE7FFF7B8FBF1E7FFF7B5FBF2E7A8
:101CB000E0030020004C004010B598B0044600211D
:101CC00013911491159116911791442202A8FEF7D1
:101CD000F5FA2268184B9A4201D018B010BD0823BB
:101CE00002930DEB030002F0F1FE08BB134B9A6D5B
:101CF00042F400229A659A6D02F400220092009A42
:101D0000DA6C42F00402DA64DB6C03F00403019342
:101D1000019B4FF440631393022314930023159304
:101D200016930523179313A9054803F041F8D4E748
:101D3000FFF772FBDAE700BF004C004000100240E2
:101D40000008004870B588B00024029403940494FD
:101D5000059406940794134BDA6D42F48072DA65A9
:101D6000DA6D02F480720192019ADA6C42F002029A
:101D7000DA64DB6C03F002030093009B10230293F0
:101D800003260396084D02A9284605F040F8402393
:101D900002930396069402A9284605F038F808B085
:101DA00070BD00BF0010024000040048FEE7FEE7DF
:101DB000FEE7FEE7FEE770477047704708B502F0A0
:101DC00057FA08BD08B5024801F038F808BD00BF51
:101DD0004411002082B00A4B1A6E42F001021A66CA
:101DE0001A6E02F001020092009A9A6D42F080523F
:101DF0009A659B6D03F080530193019B02B070477D
:101E00000010024008B500220F49104805F0C8F83C
:101E100070B90F490D4805F0DAF860B90D490B4863
:101E200005F045FF50B9094805F0E8F848B908BD84
:101E3000FFF7F2FAEDE7FFF7EFFAEFE7FFF7ECFA5B
:101E4000F1E7FFF7E9FAF2E76400002074040020EC
:101E5000D8000020B800002012230B8000487047F3
:101E60008400002004230B80004870479800002065
:101E7000002393421ED200B510E00CF1370C01F89C
:101E800013C000014FEA430C0CF1010C4FF0000E9F
:101E900001F80CE00133DBB2934209D24FEA107C27
:101EA000B0F1204FE9D20CF1300C01F813C0E8E793
:101EB0005DF804FB7047000038B50B4BD3F8900574
:101EC000D3F89445D3F89835C01800D138BD074DE4
:101ED0000822A91CFFF7CCFF042205F112012046BD
:101EE000FFF7C6FFF2E700BF0070FF1F9C00002055
:101EF00008B51A230B80FFF7DFFF014808BD00BFBC
:101F00009C00002008B50A4628B90549054805F097
:101F1000F2FC034808BD0249024805F0ECFCF8E772
:101F2000440700201C7E000810B50A46034C2146D9
:101F3000034805F0E0FC204610BD00BF4407002028
:101F4000347E000808B50A4628B90549054805F059
:101F5000D2FC034808BD0249024805F0CCFCF8E772
:101F600044070020487E000808B50A4628B90549FC
:101F7000054805F0C0FC034808BD0249024805F0C9
:101F8000BAFCF8E744070020547E000800207047A0
:101F9000002070470020704710B50146044C2046D1
:101FA00005F097FE204605F0B7FE002010BD00BFEB
:101FB0007404002010B5064C00220649204605F0A6
:101FC0007DFE0549204605F084FE002010BD00BFBF
:101FD00074040020440D002044090020094BD3F86C
:101FE000BC32D3F814320BB10120704710B5054C48
:101FF0000A460146204605F061FE204605F072FEC5
:1020000010BD00BF74040020032805D8DFE800F0ED
:1020100005040205012070470320704708B5FFF74B
:10202000FDF908BD10B592B004464422002101A874
:10203000FEF744F92268124B9A4201D012B010BD4B
:102040004FF4005301934FF000630E9301A802F088
:102050003DFD90B90B4B9A6D42F400029A659B6D61
:1020600003F400030093009B00221146142003F0A8
:1020700027F8142003F05CF8E0E7FFF7CDF9E9E773
:10208000005C00400010024008B500F52671D0F851
:10209000D80204F0C8FF08BD08B501EB810300EBCE
:1020A000C303D3F86421D0F8D80204F0E8FF08BDD8
:1020B00008B501EB810300EBC3035A6AD0F8D802DC
:1020C00005F019F808BD08B5D0F8D80205F0B9F840
:1020D00008BD10B504464379022B09D10121D4F87B
:1020E000D80205F094F8D4F8D80205F063F810BDD2
:1020F000FFF792F9F2E7000010B50446D0F8D802D5
:1021000005F088F8637A23B1024A136943F00603A5
:10211000136110BD00ED00E010B50446437A23B909
:10212000D4F8D80205F080F810BD044A136923F0F2
:1021300006031361FFF772FFF2E700BF00ED00E056
:1021400010B504461E48C0F8D842C4F8C4021D4B5E
:1021500003600823037102234371C37100230372D8
:1021600043728372C37200F044F930BB182300221B
:102170001146D4F8C40201F077F8582300228021D8
:10218000D4F8C40201F070F8C02300228121D4F8F1
:10219000C40201F069F84FF4887300220121D4F8D9
:1021A000C40201F061F84FF4807300228221D4F858
:1021B000C40201F059F8002010BDFFF72DF9D5E752
:1021C00044110020005C004008B5D0F8C40200F0C3
:1021D0006BF9FFF719FF08BD08B594461A46634628
:1021E000D0F8C40200F003FFFFF70EFF08BD08B5EA
:1021F000D0F8C40200F03EFFFFF706FF08BD08B5A7
:10220000D0F8C40200F0B8FFFFF7FEFE08BD08B525
:10221000D0F8C40200F0E9FFFFF7F6FE08BDD0F8E1
:10222000C43211F0800F08D101F07F0101EB810170
:1022300003EBC10191F85201704701F07F0101EBFE
:10224000810103EBC101887C704708B5D0F8C40256
:1022500000F0E1FDFFF7D8FE08BD08B5D0F8C402D4
:1022600000F064FFFFF7D0FE08BD08B5D0F8C40247
:1022700000F036FFFFF7C8FE08BD08B5D0F8C4026D
:1022800000F04BFF08BD000010B5044611B1012954
:102290000FD010BD437A23B9D4F8D80204F0C4FF9C
:1022A000F7E7FFF7BBFE094A136923F00603136142
:1022B000F2E7D0F8D80204F0ADFF637A002BE8D043
:1022C000024A136943F006031361E2E700ED00E000
:1022D0000048704720140020704738B512F4804F32
:1022E00043D00468B4F8503091F800C04FEACC0EE7
:1022F0001EFA83F32344B3F80244C4F309048B6940
:10230000A34228D31B1B8B618B697BB9056835F809
:102310002C309BB223F4804323F0700383F40053EA
:1023200043F4004343F0800325F82C3012F0400FB3
:102330000ED002680D7832F825309BB223F4E043CA
:1023400023F0700343F4004343F0C00322F8253028
:1023500024B9204638BD00238B61D5E723460A897E
:102360004969006801F033FFF3E70468B4F85030BE
:1023700091F800C04FEACC0E1EFA83F32344B3F861
:102380000644C4F309048B69A3422FD31B1B8B6142
:102390008B697BB9056835F82C309BB223F48043F8
:1023A00023F0700383F4005343F4004343F08003AD
:1023B00025F82C3012F0400F0FD1026891F800C0C0
:1023C00032F82C309BB223F4E04323F0700343F443
:1023D000004343F0C00322F82C30002CB9D0234630
:1023E0004A894969006801F0F2FEB2E700238B6177
:1023F000CEE7002856D010B5044690F891323BB194
:10240000032384F89132206800F069FF002315E06F
:1024100080F89032FFF706FEF2E703EB830204EB4D
:10242000C2020121517413740021D17411625162EE
:10243000013303EB8302D200A150DBB22079984232
:10244000EBD8002316E003EB830204EBC202002169
:1024500082F8511182F8503182F85311C2F860119C
:10246000C2F8641103EB830204EBC202C2F86811E4
:102470000133DBB29842E6D8234653F8040B93E8C5
:10248000060000F036FF00232373012384F8913205
:10249000A37A012B01D0002010BD204600F000FFE0
:1024A0000020F9E70120704790F89032012B0ED000
:1024B00010B50446012380F89032006800F006FF52
:1024C000206801F076FA002084F8900210BD022006
:1024D000704770B505460C46164612F0400F00F0E6
:1024E0000A810268B2F850300978C80010FA83F304
:1024F0001344B3F80224C2F30902A36993424DD9ED
:102500009B1AA361A369002B64D16378002B48D187
:102510002A68B2F8503012FA83F30344B3F8022465
:10252000C2F30902A3F80224B3F802246FEA42427C
:102530006FEA524292B2A3F8022429686278002A14
:102540003BD1B1F8503011FA83F3227803EBC20388
:10255000B3F80624C2F30902A3F80624B3F806244C
:102560006FEA42426FEA524292B2A3F806242178FF
:102570002846FFF79DFD16F4804F40D02A68217849
:1025800032F821309BB223F4E04323F0700343F48C
:10259000404343F0800322F8213030E00023A36160
:1025A000B0E7012BC9D12A68B2F8503012FA83F390
:1025B00003440022A3F80224BFE7012AD7D1B1F8CF
:1025C000503011FA83F3217803EBC1030022A3F802
:1025D0000624CCE716F4804F0DD0286830F821305F
:1025E0009BB223F4E04323F0700343F4404343F0F1
:1025F000800320F8213094F82430012B12D02A686F
:10260000217832F821309BB223F4E04323F04003D9
:1026100083F0300343F4004343F0800322F8213079
:10262000002070BD636913446361E3691344E3618F
:10263000216A236999421DD3C91A21626278002A4E
:1026400044D12968B1F8502011FA82F2217802EBC6
:10265000C102B2F80214C1F30901A2F80214ABB925
:10266000B2F802146FEA41416FEA514189B2A2F80F
:1026700002142DE021B9002384F824301346DDE74D
:10268000002384F8243023620B46D7E73E2B0DD875
:10269000590813F0010F00D00131B2F8020480B2E2
:1026A000890289B20143A2F8021411E0580913F01B
:1026B0001F0F00D10138B2F8021489B2800280B233
:1026C000014341F40041A2F8021401E0012A06D0BE
:1026D0009BB222896169286801F07AF98FE729683D
:1026E000B1F8502011FA82F2217802EBC10299B2BE
:1026F000A2F80214ECE70268B2F850300978C8007A
:1027000010FA83F31344B3F80624C2F30902A36951
:1027100093424ED39B1AA361A369002B65D16378C2
:10272000002B49D12A68B2F8503012FA83F31844CA
:10273000B0F80234C3F30903A0F80234B0F802344D
:102740006FEA43436FEA53439BB2A0F8023429680F
:102750006278002A3CD1B1F8503011FA83F3227824
:1027600003EBC203B3F80624C2F30902A3F806245C
:10277000B3F806246FEA42426FEA524292B2A3F8DB
:10278000062421782846FFF793FC16F4804F7FF447
:1027900036AF2A68217832F821309BB223F4E04327
:1027A00023F0700343F4404343F0800322F82130C8
:1027B00025E70023A361AFE7012BC8D12A68B2F84F
:1027C000503012FA83F318440023A0F80234BEE715
:1027D000012AD6D1B1F8503011FA83F3217803EBF6
:1027E000C1030022A3F80624CBE716F4804F0DD1D5
:1027F000286830F821309BB223F4E04323F07003C3
:1028000043F4404343F0800320F8213094F824300F
:10281000012B7FF4F4AE636913446361E3691344ED
:10282000E361216A236999421DD3C91A216229688B
:102830006278002A43D1B1F8502011FA82F221784F
:1028400002EBC102B2F80614C1F30901A2F80614A2
:10285000ABB9B2F806146FEA41416FEA514189B24F
:10286000A2F806142DE021B9002384F82430134681
:10287000DDE70023236284F824300B46D7E73E2BA4
:102880000DD8590813F0010F00D00131B2F8060439
:1028900080B2890289B20143A2F8061411E05809F6
:1028A00013F01F0F00D10138B2F8061489B280026C
:1028B00080B2014341F40041A2F8061401E0012A6C
:1028C00006D09BB262896169286801F081F896E6BA
:1028D000B1F8502011FA82F2217802EBC10299B2CC
:1028E000A2F80614EDE72DE9F04105462868B0F896
:1028F000443013F4004F00F08B82B0F84440A3B290
:1029000014F00F0440F0D98013F0100F63D0038847
:102910009AB213F4006F40F08F8012F4004FE5D0AC
:10292000038823F070031B051B0D43F08003038015
:102930002868B0F8503095F85021D20012FA83F38D
:102940000344B3F80634C3F30903C5F86C318BB103
:10295000D5F8641171B1B5F8562101F038FCD5F8FD
:102960006C21D5F864311344C5F864310021284640
:10297000FFF792FB2A68138899B213F4006FB5D160
:1029800001F44051B1F5405FB0D0B2F8503012FAC6
:1029900083F2B2F80634C3F30903A2F80634D5F87B
:1029A0006031002B69D1B2F806346FEA43436FEA15
:1029B00053439BB2A2F806342A6813889BB223F4CF
:1029C000804323F0700383F4405343F4004343F007
:1029D000800313808AE703889BB223F4E14323F04A
:1029E00070036FEA43436FEA53439BB20380296845
:1029F000B1F850302A7CD20012FA83F30B44B3F8BA
:102A00000234C3F30903EB626A6A13446B62002168
:102A10002846FFF74DFB2B7B002B3FF467AFAB6ADB
:102A2000002B7FF463AF2B7B2A6843F08003A2F86E
:102A30004C3000232B7359E7B0F8503095F85021F3
:102A4000D20012FA83F30344B3F80634C3F3090344
:102A5000C5F86C31B5F8562105F5267101F0B7FBC4
:102A60002A68138823F070031B051B0D43F08003B5
:102A700013802846FFF708FB38E73E2B0DD859088E
:102A800013F0010F00D00131B2F8063498B28B0276
:102A90009BB20343A2F806348EE7590913F01F0FC7
:102AA00000D10139B2F806349BB2890289B20B43D6
:102AB00043F40043A2F806347EE730F824309EB297
:102AC00013F4004F4ED116F0800F3FF40FAF04EB1C
:102AD0008401C900103129442A6832F824309BB29D
:102AE00023F4E14323F070036FEA43436FEA534357
:102AF0009BB222F8243004EB840305EBC303DB7C98
:102B0000012B00F0E98016F4807F40F07C8128687A
:102B1000B0F8503004EB840205EBC202167CF200E0
:102B200012FA83F30344B3F80234C3F30903621CBB
:102B300002EB820255F832209A4240F24B81671C28
:102B400007EB8707D21A45F83720621C02EB820296
:102B500055F83220002A40F0448131462846FFF7DC
:102B6000A7FAC3E630F8243023F070031B051B0DD1
:102B700043F0800320F8243004EB8401C90001F500
:102B8000A87105EB010804EB840305EBC30393F87C
:102B90005C31002B40D12868B0F8503004EB84023F
:102BA00005EBC20292F85021D20012FA83F30344DB
:102BB000B3F80674C7F3090717BB04EB840305EBEE
:102BC000C303D3F86C213A44C3F86C21D3F86421D1
:102BD0003A44C3F86421D3F868313BB104EB840371
:102BE00005EBC303D3F860319F4270D204EB84033A
:102BF00005EBC30393F850112846FFF74DFA62E73F
:102C000004EB840105EBC1013B46B1F85621D1F834
:102C1000641101F0DCFAD0E704EB840305EBC30395
:102C200093F85331022B33D0296804EB840205EB6F
:102C3000C20292F8500131F820309BB223F4E043F5
:102C400023F0700343F4004343F0C00321F8203025
:102C5000286892F8503130F8232012F4804F1ED0AB
:102C6000B0F85020DB0013FA82F30344B3F8027487
:102C7000C7F30907002FA0D004EB840105EBC101C5
:102C80003B46B1F85821D1F8641101F0A0FA94E75D
:102C9000324641462846FFF720FB07468DE7B0F84D
:102CA0005020DB0013FA82F30344B3F80674C7F331
:102CB0000907002F81D004EB840105EBC1013B46DD
:102CC000B1F85A21D1F8641101F081FA75E7414653
:102CD000286800F091FEF6E6631C03EB8303DB003B
:102CE0000022EA5004EB840305EBC3031B7F1BB3F4
:102CF00016F0400F3BD004EB840305EBC3035B7C71
:102D00001BBB2A68B2F8503012FA83F304EB84023A
:102D100005EBC202127C03EBC203B3F80224C2F338
:102D20000902A3F80224B3F802246FEA42426FEAD0
:102D3000524292B2A3F8022404EB840405EBC404CB
:102D4000217C2846FFF7B4F9D0E5012BF4D12A689D
:102D5000B2F8503012FA83F304EB840205EBC2029E
:102D6000127C03EBC2030022A3F80224E4E72A68E2
:102D700004EB840305EBC3035B7CD3B9B2F850309A
:102D800012FA83F304EB840205EBC202127C03EB1C
:102D9000C203B3F80624C2F30902A3F80624B3F869
:102DA00006246FEA42426FEA524292B2A3F8062426
:102DB000C2E7012BC0D1B2F8503012FA83F304EB12
:102DC000840205EBC202127C03EBC2030022A3F8CB
:102DD0000624B1E7621C02EB8202D2000027AF504A
:102DE000B3E604EB840205EBC202566A1E44566247
:102DF000013404EB840205EBC2025468234453609F
:102E000000F0FAFD72E532462846FFF762FB6DE5F9
:102E10000020BDE8F08190F89032012B0CD010B565
:102E20000446012380F890320173006800F0BBFD76
:102E3000002084F8900210BD0220704710B50446AF
:102E4000006800F0C1FD10F4004F23D110F4806F32
:102E500024D110F4804F32D110F4005F39D110F436
:102E6000805F40D110F4006F67D110F0800F40F008
:102E7000818010F4007F40F0AD8010F4807F27D077
:102E80002268B2F844309BB223F480739BB2A2F85C
:102E900044301DE02046FFF726FD19E02268B2F815
:102EA00044309BB223F480639BB2A2F844302046A6
:102EB000FFF70FF900212046FFF7ADFF08E0226879
:102EC000B2F844309BB223F480439BB2A2F8443062
:102ED00010BD2268B2F844309BB223F400539BB279
:102EE000A2F84430F4E72268B2F840309BB223F0F5
:102EF00004039BB2A2F840302268B2F840309BB283
:102F000023F008039BB2A2F8403094F8C832012B9A
:102F10000CD02046FFF700F92268B2F844309BB28B
:102F200023F480539BB2A2F84430D1E7002184F807
:102F3000C8122046FFF7A8F9EBE72268B2F8403044
:102F40009BB243F00803A2F840302268B2F8443044
:102F50009BB223F400639BB2A2F844302268B2F81B
:102F600040309BB243F00403A2F840302046FFF704
:102F7000C3F8ADE72268B2F844309BB223F0800377
:102F80009BB2A2F8443094F8C832FBB92268B2F878
:102F900040309BB243F00403A2F840302268B2F8FC
:102FA00040309BB243F00803A2F84030012184F87E
:102FB000C8122368B3F85430C3F38D0303F03C0305
:102FC000C4F8CC322046FFF75FF981E72046FFF7CF
:102FD00093F87DE72268B2F844309BB223F4007383
:102FE0009BB2A2F844302046FFF76DF870E710B5A9
:102FF0000446084611F0800F27D101F0070C0CEBB6
:103000008C01C90001F5A87E04EB0E010CEB8C0CC1
:1030100004EBCC0C4FF0000E8CF851E100F00700EF
:103020000870C2F30A020A61CB70022B1DD094F81B
:103030009032012B1CD0012384F89032206800F0DC
:1030400069F9002084F8900210BD01F0070C0CEB28
:103050008C01C900103121440CEB8C0C04EBCC0C1E
:103060004FF0010E8CF811E0D8E700230B71DEE77A
:103070000220E9E710B504460A4611F0800F1FD17F
:1030800001F0070000EB8003DB0003F5A873E118F3
:1030900000EB800004EBC000002380F8513102F007
:1030A00007020A7094F89032012B17D0012384F89C
:1030B0009032206800F016FB002084F8900210BDCA
:1030C00001F0070000EB8003DB001033E11800EB98
:1030D000800004EBC00001234374E0E70220EEE728
:1030E00010B501F0070C0CEB8C01C90001F5A871BB
:1030F0000CEB8C0E00EBCE0ECEF86421CEF86831CE
:103100000024CEF86C418EF851418EF850C1014434
:10311000006800F071FC204610BD01F0070101EBD2
:10312000810100EBC101D1F86C01704738B501F0A5
:10313000070C0CEB8C01C90010310CEB8C0E00EB72
:10314000CE0ECEF824200CF1010202EB820440F8EE
:10315000343001258EF83450CEF8303000EBC40204
:10316000002454608EF811508EF810C0014400689D
:1031700000F042FC204638BD0B4601F00702017901
:1031800091422ED310B5044613F0800F1DD103EBEE
:103190008301C90001F5A871014403EB830300EB2F
:1031A000C303002083F8510101238B700A7094F847
:1031B0009032012B17D0012384F89032206800F060
:1031C0007CFB002084F8900210BD02EB8201C90054
:1031D0001031014402EB820300EBC3030120587459
:1031E000E2E7012070470220EEE70B46017903F089
:1031F0000F02914234D310B5044613F0800F21D151
:1032000003F0070202EB8201C90001F5A871014435
:1032100002EB820200EBC202002082F85101002280
:103220008A7003F007030B7094F89032012B19D0C9
:10323000012384F89032206800F064FB002084F8B9
:10324000900210BD03F0070202EB8201C9001031A9
:10325000014402EB820200EBC20201205074DEE75F
:10326000012070470220ECE711F0800F0BD001F035
:10327000070101EB8101C9001031014452B90A7301
:10328000CB800020704701EB8101C90001F5A871D6
:103290000144F3E701220A730B811B0C4B81F0E719
:1032A000034602680121C0F8D012002083F8C8024A
:1032B000B2F854309BB20B43A2F85430B2F85430F9
:1032C0009BB243F00203A2F854307047034600203B
:1032D000A3F844004BF68072A3F840207047B0F882
:1032E000403023F47E535B045B0CA0F84030002098
:1032F000704782B0034602A800E906000122A3F845
:1033000040200020A3F84000A3F84400A3F8500098
:1033100002B0704710B503460A7830F822C01FFA91
:103320008CFC2CF4EC4C2CF0700C1FFA8CFCC87844
:10333000032862D8DFE800F0565D0259002048F209
:10334000800E4CEA0E0C23F822C091F800C033F82E
:103350002C2012B222F4E04222F070024CEA020267
:1033600092B242EA0E0223F82C200A7B002A40F097
:10337000DC804A78002A51D0B3F8502013FA82F248
:103380000C7802EBC402B1F806C04FEA5C0C4FEABD
:103390004C0CA2F800C40C7833F8242012F0400F33
:1033A0000CD033F8242092B222F4E04222F07002D2
:1033B00042F4004242F0C00223F82420CA78012AD5
:1033C0001DD0097833F8212092B222F4E04222F095
:1033D000400282F0200242F4004242F0800223F8D0
:1033E000212018E14CF4007CA9E74CF4C06C0020CB
:1033F000A5E74CF4806C0020A1E701209FE7097845
:1034000033F8212092B222F4E04222F0400242F44A
:10341000004242F0800223F82120FCE0B3F8502063
:1034200013FA82F20C7802EBC402B1F806C04FEA3C
:103430005C0C4FEA4C0CA2F804C4B3F8502013FA09
:1034400082F20C7802EBC402B2F806C4CCF3090C89
:10345000A2F806C40C6974BBB2F806C46FEA4C4CFF
:103460006FEA5C4C1FFA8CFCA2F806C40C7833F8A7
:10347000242012F4804F0CD033F8242092B222F48E
:10348000E04222F0700242F4404242F0800223F80F
:1034900024200978C9BB33F8212092B222F480425B
:1034A00022F0700282F4405242F4004242F0800264
:1034B00023F82120AFE03E2C12D84FEA540C14F030
:1034C000010F01D00CF1010CB2F80644A4B24FEA8E
:1034D0008C2C1FFA8CFC44EA0C0CA2F806C4C5E73D
:1034E0004FEA541C14F01F0F01D10CF1FF3CB2F84D
:1034F0000644A4B24FEA8C2C1FFA8CFC44EA0C045C
:1035000044F40044A2F80644B0E733F8212092B214
:1035100022F4804222F0700282F4005242F400420F
:1035200042F0800223F8212075E0CA78022A73D085
:1035300091F800C033F82C2092B222F4E24222F03B
:10354000700242F4004242F0800223F82C20B3F8CB
:10355000502013FA82F291F800C002EBCC02B1F8CD
:1035600008C04FEA5C0C4FEA4C0CA2F800C4B3F858
:10357000502013FA82F291F800C002EBCC02B1F8AD
:103580000AC04FEA5C0C4FEA4C0CA2F804C44A781B
:10359000002A50D10C7833F8242012F4804F0CD03C
:1035A00033F8242092B222F4E04222F0700242F476
:1035B000404242F0800223F824200C7833F8242083
:1035C00012F0400F0CD033F8242092B222F4E042E3
:1035D00022F0700242F4004242F0C00223F824209C
:1035E00091F800C033F82C2092B222F4804222F0ED
:1035F000700282F4405248F28004224323F82C20C7
:10360000097833F8212092B222F4E04222F04002FD
:10361000224323F8212010BD0C7833F8242092B2E5
:1036200022F4E04222F0700242F4014242F08002B1
:1036300023F824208BE70C7833F8242012F4804FF1
:103640000CD033F8242092B222F4E04222F070022F
:1036500042F4404242F0800223F824200C7833F8F0
:10366000242012F0400F0CD033F8242092B222F420
:10367000E04222F0700242F4004242F0C00223F81D
:103680002420CA78012A1ED00C7833F8242092B264
:1036900022F4E04222F0400282F0200242F4004292
:1036A00042F0800223F82420097833F8212092B2D6
:1036B00022F4804222F0700242F4004242F0800282
:1036C00023F82120A7E70C7833F8242092B222F4C3
:1036D000E04222F0400242F4004242F0800223F82D
:1036E0002420E1E70B7B002B46D14B7813B30A78FB
:1036F00030F8223013F0400F0CD030F822309BB25B
:1037000023F4E04323F0700343F4004343F0C00389
:1037100020F822300A7830F822309BB223F4E043BC
:1037200023F0400343F4004343F0800320F82230A9
:10373000002070470A7830F8223013F4804F0CD004
:1037400030F822309BB223F4E04323F0700343F4BB
:10375000404343F0800320F822300A7830F82230CA
:103760009BB223F4804323F0700343F4004343F0FF
:10377000800320F82230DBE74B78002B4ED10A780B
:1037800030F8223013F4804F0CD030F822309BB246
:1037900023F4E04323F0700343F4404343F08003F9
:1037A00020F822300A7830F8223013F0400F0CD085
:1037B00030F822309BB223F4E04323F0700343F44B
:1037C000004343F0C00320F822300A7830F822305A
:1037D0009BB223F4E04323F0700343F4004343F02F
:1037E000C00320F822300B7830F8232092B222F464
:1037F000804222F0700248F2800C42EA0C0220F86B
:1038000023200A7830F822309BB223F4E04323F0DF
:10381000400343EA0C0320F8223089E70A7830F8A5
:10382000223013F4804F0CD030F822309BB223F4B6
:10383000E04323F0700343F4404343F0800320F857
:1038400022300A7830F8223013F0400F0CD030F8D4
:1038500022309BB223F4E04323F0700343F400438F
:1038600043F0C00320F822300A7830F822309BB2AF
:1038700023F4E04323F0700343F4404343F0800318
:1038800020F822300B7830F8232092B222F4E04264
:1038900022F0400248F2800C42EA0C0220F8232079
:1038A0000A7830F822309BB223F4804323F070036F
:1038B00043EA0C0320F822303AE74B788BB10A78C0
:1038C00030F822309BB223F4E04323F0400383F02E
:1038D000100343F4004343F0800320F8223000201B
:1038E00070470A7830F822309BB223F4804323F0EB
:1038F000700383F4805343F4004343F0800320F8C3
:103900002230ECE70B7B002B4BD14B7833B30A789A
:1039100030F8223013F0400F0CD030F822309BB238
:1039200023F4E04323F0700343F4004343F0C00367
:1039300020F82230CB78012B33D00A7830F82230AF
:103940009BB223F4E04323F0400383F0200343F4CD
:10395000004343F0800320F8223022E00A7830F858
:10396000223013F4804F0CD030F822309BB223F475
:10397000E04323F0700343F4404343F0800320F816
:1039800022300A7830F822309BB223F4804323F0AF
:10399000700383F4405343F4004343F0800320F862
:1039A00022300020704711B98023A0F84C3000204D
:1039B0007047B0F858306FEA43436FEA53439BB205
:1039C000A0F8583000207047B0F8440080B270472B
:1039D00010B45C1C6408024402F5806207E00B78B6
:1039E000487843EA002322F8023B0231013C002CD4
:1039F000F5D15DF8044B704770B505460C464A7822
:103A0000012A35D00B7B002B40F0A8828B690A6914
:103A1000934240F27F829B1A8B61B5F8503015FAC1
:103A200083F3217803EBC103B3F80614C1F3090152
:103A3000A3F80614002A40F07182B3F806246FEA56
:103A400042426FEA524292B2A3F80624227835F835
:103A500022309BB223F4804323F0700383F440535D
:103A600043F4004343F0800325F82230002070BD6A
:103A70008E6909698E4200D90E46237B43B3E378F1
:103A8000022B47D0236A9B1B2362237835F823102F
:103A900011F0400F00F0F681002A40F0E381B5F804
:103AA000502015FA82F202EBC303B3F80624C2F3E6
:103AB0000902A3F80624002E40F0B481B3F80624CE
:103AC0006FEA42426FEA524292B2A3F80624D2E170
:103AD000B6B23346E28861692846FFF779FFB5F848
:103AE000503015FA83F3227803EBC203A3F8026483
:103AF000227835F822309BB223F4E04323F04003D0
:103B000083F0300343F4004343F0800325F8223070
:103B10000020ACE7236A994280F06681227835F86C
:103B200022309BB223F4E04323F0700343F40143BB
:103B300043F0800325F82230236A9B1B23622378FD
:103B400035F8232012F0400F00F0A7806278B2BB56
:103B5000B5F8502015FA82F202EBC303B3F806243D
:103B6000C2F30902A3F806244EB9B3F806246FEA9B
:103B700042426FEA524292B2A3F8062421E03E2E5E
:103B80000DD8720816F0010F00D00132B3F80614F8
:103B900089B2920292B20A43A3F8062411E0710995
:103BA00016F01F0F00D10139B3F8062492B2890232
:103BB00089B20A4342F40042A3F8062401E0012A34
:103BC00029D0B3B2628961692846FFF701FF6369B2
:103BD00033446361236A2269934226D99B1B236283
:103BE0006378002B45D1B5F8503015FA83F322786D
:103BF00003EBC203B3F80224C2F30902A3F80224C0
:103C0000BEB9B3F802246FEA42426FEA524292B25E
:103C1000A3F802242FE0B5F8502015FA82F202EB47
:103C2000C303B2B2A3F80624CBE7002222621E46E9
:103C3000D6E73E2E0DD8720816F0010F00D00132E3
:103C4000B3F8021489B2920292B20A43A3F8022492
:103C500011E0710916F01F0F00D10139B3F80224E9
:103C600092B2890289B20A4342F40042A3F80224C4
:103C700001E0012B06D0B3B2228961692846FFF723
:103C8000A7FE35E7B5F8503015FA83F3227803EB39
:103C9000C203B2B2A3F80224EDE76278B2BBB5F872
:103CA000502015FA82F202EBC303B3F80224C2F3E8
:103CB0000902A3F802244EB9B3F802246FEA424283
:103CC0006FEA524292B2A3F8022421E03E2E0DD8B0
:103CD000720816F0010F00D00132B3F8021489B255
:103CE000920292B20A43A3F8022411E0710916F07D
:103CF0001F0F00D10139B3F8022492B2890289B2B0
:103D00000A4342F40042A3F8022401E0012A29D028
:103D1000B3B2228961692846FFF75AFE63693344CA
:103D20006361236A2269934226D99B1B23626378CD
:103D3000002B45D1B5F8503015FA83F3227803EB08
:103D4000C203B3F80624C2F30902A3F80624BEB9DD
:103D5000B3F806246FEA42426FEA524292B2A3F8E5
:103D600006242FE0B5F8502015FA82F202EBC303C7
:103D7000B2B2A3F80224CBE7002222621E46D6E7A5
:103D80003E2E0DD8720816F0010F00D00132B3F8A4
:103D9000061489B2920292B20A43A3F8062411E0F3
:103DA000710916F01F0F00D10139B3F8062492B241
:103DB000890289B20A4342F40042A3F8062401E0D2
:103DC000012B06D0B3B2628961692846FFF700FE75
:103DD0008EE6B5F8503015FA83F3227803EBC20370
:103DE000B2B2A3F80624EDE7217835F8212092B28B
:103DF00022F4E24222F0700242F4004242F08002D9
:103E000025F82120B5F8502015FA82F2217802EB2E
:103E1000C1029BB2A2F80234228961692846FFF7E9
:103E2000D7FD65E63E2E0DD8720816F0010F00D0C2
:103E30000132B3F8061489B2920292B20A43A3F88F
:103E4000062418E0710916F01F0F00D10139B3F8EC
:103E5000062492B2890289B20A4342F40042A3F8CE
:103E6000062408E0B5F8502015FA82F202EBC303ED
:103E7000B2B2A3F80624B3B2628961692846FFF79B
:103E8000A7FD35E6B2BBB5F8502015FA82F202EB79
:103E9000C303B3F80224C2F30902A3F802244EB903
:103EA000B3F802246FEA42426FEA524292B2A3F898
:103EB000022428E03E2E0DD8720816F0010F00D023
:103EC0000132B3F8021489B2920292B20A43A3F803
:103ED000022418E0710916F01F0F00D10139B3F860
:103EE000022492B2890289B20A4342F40042A3F842
:103EF000022408E0B5F8502015FA82F202EBC30361
:103F0000B2B2A3F80224B3B2228961692846FFF74E
:103F10005FFDEDE500228A611A467EE53E2A0DD856
:103F2000510812F0010F00D00131B3F8062492B20B
:103F3000890289B21143A3F8061487E5510912F0EA
:103F40001F0F00D10139B3F8062492B2890289B259
:103F50000A4342F40042A3F8062477E5CB78022B0B
:103F600041D0012B40F0318189692369994240F2A7
:103F7000DA80C91AA161C2B9B5F8502015FA82F2E7
:103F8000217802EBC102B2F80214C1F30901A2F8D0
:103F90000214002B40F0CB80B2F802146FEA4141CA
:103FA0006FEA514189B2A2F802146278002A40F007
:103FB000FE80B5F8502015FA82F2217802EBC1029A
:103FC000B2F80614C1F30901A2F80614002B40F060
:103FD000CE80B2F806346FEA43436FEA53439BB294
:103FE000A2F8063432E5BAB9B0F8503010FA83F3CB
:103FF0000A7803EBC203B3F80224C2F30902A3F860
:1040000002240A6922BBB3F802246FEA42426FEA33
:10401000524292B2A3F802246378002B58D1B5F82B
:10402000503015FA83F3227803EBC203B3F8062469
:10403000C2F30902A3F8062422694ABBB3F8062496
:104040006FEA42426FEA524292B2A3F8062441E07C
:104050003E2A0DD8510812F0010F00D00131B3F8FB
:10406000022490B28A0292B20243A3F80224D3E758
:10407000510912F01F0F00D10139B3F8022492B296
:10408000890289B20A4342F40042A3F80224C3E73A
:104090003E2A0DD8510812F0010F00D00131B3F8BB
:1040A000062490B28A0292B20243A3F8062411E0D9
:1040B000510912F01F0F00D10139B3F8062492B252
:1040C000890289B20A4342F40042A3F8062401E0BF
:1040D000012B1DD0E369002B3FF4B8AC227835F8F2
:1040E000221044F2400303EA01008B4302D000286F
:1040F0007FF4ACAC35F822309BB223F4E04323F0DC
:10410000700343F4004343F0C00325F822309DE4DC
:10411000B5F8503015FA83F3227803EBC203228AF4
:10412000A3F80624D6E70023A3610B4623E73E2B22
:104130000DD8590813F0010F00D00131B2F8020474
:1041400080B2890289B20143A2F802142DE758090E
:1041500013F01F0F00D10138B2F8021489B28002A7
:1041600080B2014341F40041A2F802141DE73E2B46
:104170000DD8590813F0010F00D00131B2F8063400
:1041800098B28B029BB20343A2F806345EE459094D
:1041900013F01F0F00D10139B2F806349BB2890227
:1041A00089B20B4343F40043A2F806344EE4012ADB
:1041B0007FF44CACB5F8502015FA82F2217802EB6E
:1041C000C1029BB2A2F8063440E401204FE410B4CF
:1041D0005C08104400F5806007E030F8022B0A709C
:1041E000C2F307224A700231013C002CF5D113F0D2
:1041F000010F01D003880B705DF8044B704700007D
:10420000104B1B680BB90120704710B504464FF4E2
:104210007A70B0FBF3F30C4A1068B0FBF3F000F0D7
:1042200095FF68B90F2C01D901200AE00022214630
:104230004FF0FF3000F044FF044B1C60002000E012
:10424000012010BDCC000020D4000020D0000020B0
:1042500010B5032000F022FF0F20FFF7D1FF10B1AF
:104260000124204610BD0446FDF7B4FDF9E7000027
:10427000034A1368034909680B441360704700BF81
:1042800040160020CC000020014B1868704700BF8A
:104290004016002038B50446FFF7F6FF0546B4F196
:1042A000FF3F02D0044B1B681C44FFF7EDFF401B8F
:1042B000A042FAD338BD00BFCC000020124BDA6810
:1042C00002F00302D868C0F30310431C032A11D084
:1042D0000E48B0FBF3F00C4BDB68C3F3062303FB83
:1042E00000F0094BDB68C3F3416301335B00B0FBB3
:1042F000F3F070470648B0FBF3F0034BDB68C3F301
:10430000062303FB00F0ECE7001002400024F40059
:1043100000127A00002800F04F8270B582B0044687
:10432000036813F0010F37D0A44A936803F00C031D
:10433000D26802F003020C2B23D0082B23D0636831
:10434000B3F5803F4ED0B3F5A02F51D09B4B1A68E8
:1043500022F480321A601A6822F480221A6063689C
:10436000002B52D0FFF790FF0546944B1B6813F4C7
:10437000003F11D1FFF788FF401B6428F5D90320C7
:1043800023E2032AD9D18D4B1B6813F4003F03D0DD
:104390006368002B00F01282236813F0020F5DD0D7
:1043A000864A936803F00C03D26802F003020C2BD8
:1043B0003AD0042B3AD0E368002B75D07F4A1368BB
:1043C00043F480731360FFF75FFF05467B4B1B6868
:1043D00013F4806F5FD1FFF757FF401B0228F5D918
:1043E0000320F2E1754A136843F480331360B6E7A3
:1043F00003F18043A3F53C331A6842F480221A602B
:104400001A6842F480321A60A9E7FFF73DFF0546BB
:104410006A4B1B6813F4003FBED0FFF735FF401B0B
:104420006428F5D90320D0E1022AC2D1634B1B686E
:1044300013F4806F03D0E368002B00F0C1815F4A62
:10444000536823F0FE43216943EA016353605C4BE8
:104450001868FFF7D5FE002840F0B481236813F0F8
:10446000080F4CD063699BB3544AD2F8943043F0A0
:104470000103C2F89430FFF707FF05464F4BD3F80E
:10448000943013F0020F3AD1FFF7FEFE401B0228D2
:10449000F4D9032099E1494A536823F0FE43216986
:1044A00043EA01635360D9E7444A136823F48073F5
:1044B0001360FFF7E9FE0546404B1B6813F4806F5D
:1044C000CCD0FFF7E1FE401B0228F5D903207CE1A8
:1044D0003A4AD2F8943023F00103C2F89430FFF73F
:1044E000D3FE0546354BD3F8943013F0020F06D0B7
:1044F000FFF7CAFE401B0228F4D9032065E12368B8
:1045000013F0040F00F081802C4B9B6D13F0805F43
:1045100036D12A4B9A6D42F080529A659B6D03F01A
:1045200080530193019B0125264B1B6813F4807F68
:1045300028D0A368012B39D0052B45D01F4BD3F8C9
:10454000902022F00102C3F89020D3F8902022F0AE
:104550000402C3F89020A368002B43D0FFF794FE19
:104560000646164BD3F8903013F0020F4CD1FFF7EC
:104570008BFE801B41F288339842F2D9032024E15C
:104580000025D1E70F4A136843F480731360FFF7E7
:104590007BFE06460B4B1B6813F4807FC9D1FFF7E7
:1045A00073FE801B0228F5D903200EE1034AD2F8DE
:1045B000903043F00103C2F89030CCE70010024085
:1045C000D000002000700040884BD3F8902042F0CB
:1045D0000402C3F89020D3F8902042F00102C3F8FF
:1045E0009020B8E7FFF750FE0646804BD3F8903096
:1045F00013F0020F08D0FFF747FE801B41F288330B
:104600009842F2D90320E0E0E5B9236813F0200FC7
:1046100035D0A369E3B1754AD2F8983043F001036D
:10462000C2F89830FFF730FE0546704BD3F898304B
:1046300013F0020F23D1FFF727FE401B0228F4D905
:104640000320C2E0694A936D23F080539365DCE751
:10465000664AD2F8983023F00103C2F89830FFF789
:1046600013FE0546614BD3F8983013F0020F06D0C5
:10467000FFF70AFE401B0228F4D90320A5E0E369F6
:10468000002B00F0A180594A926802F00C020C2A1B
:1046900064D0022B13D0554A136823F08073136043
:1046A000FFF7F2FD0446514B1B6813F0007F4ED01C
:1046B000FFF7EAFD001B0228F5D9032085E04B4AED
:1046C000136823F080731360FFF7DEFD0546474B48
:1046D0001B6813F0007F06D0FFF7D6FD401B0228B1
:1046E000F5D9032071E0414AD36841491940236A52
:1046F000606A013843EA0013A06A43EA0023206B92
:104700004008013843EA4053606B4008013843EAEF
:104710004063E06A43EAC0630B43D360136843F02D
:1047200080731360D36843F08073D360FFF7ACFDF0
:1047300004462E4B1B6813F0007F06D1FFF7A4FD43
:10474000001B0228F5D903203FE000203DE0274A66
:10475000D168284B0B40D360002036E0012B36D0C7
:10476000224BDB6803F00301226A914231D103F04E
:10477000F002616A0139B2EB011F2CD103F4FE4251
:10478000A16AB2EB012F28D103F07842E16AB2EBC3
:10479000C16F24D103F4C001226B5208013AB1EB7E
:1047A000425F1ED103F0C063626B5208013AB3EB63
:1047B000426F18D1002008E001207047012004E07A
:1047C000012002E0012000E0002002B070BD0120C5
:1047D000FBE70120F9E70120F7E70120F5E70120D9
:1047E000F3E70120F1E70120EFE700BF00100240EE
:1047F0000C809F01FCFFEEFE1E4B9B6803F00C0338
:10480000042B33D01B4B9B6803F00C03082B2FD0D9
:10481000184B9B6803F00C030C2B01D00020704751
:10482000144BDA6802F00302D868C0F30310431C8B
:10483000032A11D01048B0FBF3F00E4BDB68C3F332
:10484000062303FB00F00B4BDB68C3F3416301332A
:104850005B00B0FBF3F070470848B0FBF3F0054B8A
:10486000DB68C3F3062303FB00F0ECE70248704764
:1048700002487047001002400024F40000127A0041
:10488000002800F0E680F8B50C460546744B1B681E
:1048900003F00F038B420BD2714A136823F00F030E
:1048A0000B431360136803F00F038B4240F0D38077
:1048B0002E6816F001065FD06B68032B2FD0022BF9
:1048C0004DD0684B1B6813F4806F00F0C680FFF773
:1048D00093FF654B98424DD9624A936823F0F003E9
:1048E00043F08003936080265E4A936823F00303BD
:1048F00069680B439360FFF7C7FC0746594B9B68F9
:1049000003F00C036A68B3EB820F35D0FFF7BCFCF1
:10491000C01B41F288339842F0D9032078E0514B14
:104920001B6813F0007F01D1012071E0FFF7C6FC86
:104930004D4B98421AD94B4B9B6813F0F00F05D0A2
:104940002E6816F00206CFD0AB688BB9454A936843
:1049500023F0F00343F0800393608026C4E7414BCB
:104960001B6813F4003FB2D1012051E00026BBE7E1
:104970000026B9E70026B7E72B6813F0020F48D0EE
:1049800013F0040F04D0374A936843F4E063936054
:104990002B6813F0080F06D0324A936823F47C5337
:1049A00043F4E06393602F4A936823F0F003A9680F
:1049B0000B4393602A4B1B6803F00F03A34230D8CC
:1049C0002B6813F0040F06D0264A936823F4E063A3
:1049D000E9680B4393602B6813F0080F07D0214A56
:1049E000936823F46053296943EAC1039360FFF796
:1049F00003FF1C4B9B68C3F303131C4AD35C03F0F7
:104A00001F03D8401A4B18601A4B1868FFF7F8FBC1
:104A1000F8BD802ECED1134A936823F0F003936043
:104A2000C8E70F4A136823F00F0323431360FFF70F
:104A30002BFC06460A4B1B6803F00F03A342BFD0B2
:104A4000FFF722FC801B41F288339842F2D9032001
:104A5000DEE7012070470120DAE70120D8E700BF38
:104A6000002002400010024000B4C4048C7E000804
:104A7000D4000020D0000020014B1868704700BF10
:104A8000D400002008B5FFF7F7FF054B9B68C3F380
:104A90000223044AD35C03F01F03D84008BD00BFC3
:104AA000001002409C7E000808B5FFF7E5FF054BAB
:104AB0009B68C3F3C223044AD35C03F01F03D840AE
:104AC00008BD00BF001002409C7E0008F0B583B016
:104AD0000446036813F4002F69D0AE4B9B6D13F0AE
:104AE000805F1ED1AB4B9A6D42F080529A659B6DF0
:104AF00003F080530193019B0126A74A136843F4F6
:104B000080731360FFF7C0FB0546A34B1B6813F4CB
:104B1000807F08D1FFF7B8FB401B0228F5D9032599
:104B200002E00026E9E7002545BB9A4BD3F8903018
:104B300013F4407315D0226C9A4212D0954AD2F8E1
:104B4000903023F44073D2F8901041F48031C2F8D1
:104B50009010D2F8901021F48031C2F89010C2F871
:104B6000903013F0010F10D145B98A4AD2F8903035
:104B700023F44073216C0B43C2F89030C6B1854AD0
:104B8000936D23F08053936512E0FFF77DFB07469A
:104B9000804BD3F8903013F0020FE5D1FFF774FB90
:104BA000C01B41F288339842F2D90325DCE7002587
:104BB000236813F0010F08D0764AD2F8883023F02A
:104BC000030361680B43C2F88830236813F0020FB7
:104BD00008D0704AD2F8883023F00C03A1680B4348
:104BE000C2F88830236813F0040F08D0694AD2F85D
:104BF000883023F03003E1680B43C2F88830236823
:104C000013F0080F08D0634AD2F8883023F0C003AD
:104C100021690B43C2F88830236813F0200F08D0B5
:104C20005C4AD2F8883023F4406361690B43C2F8D0
:104C30008830236813F0400F08D0564AD2F88830E5
:104C400023F44053A1690B43C2F88830236813F062
:104C5000800F08D04F4AD2F8883023F44043E169EE
:104C60000B43C2F88830236813F4807F08D0494A88
:104C7000D2F8883023F44033216A0B43C2F88830DD
:104C8000236813F4007F08D0424AD2F8883023F416
:104C90004023616A0B43C2F88830236813F4806FA5
:104CA0000CD03C4AD2F8883023F44013A16A0B435D
:104CB000C2F88830A36AB3F5801F57D0236813F475
:104CC000006F0CD0334AD2F8883023F44003E16AF5
:104CD0000B43C2F88830E36AB3F5800F4BD02368EA
:104CE00013F4805F0CD02B4AD2F8883023F0407345
:104CF000216B0B43C2F88830236BB3F1807F3FD028
:104D0000236813F4005F0CD0224AD2F8883023F0D5
:104D10004063616B0B43C2F88830636BB3F1006F83
:104D200033D0236813F4804F0CD01A4AD2F888305D
:104D300023F04063A16B0B43C2F88830A36BB3F13F
:104D4000006F2BD0236813F4004F0CD0114AD2F817
:104D5000883023F04053E16B0B43C2F88830E36B9B
:104D6000B3F1805F1FD0284603B0F0BDD36843F491
:104D70008013D360A2E7D36843F48013D360AEE717
:104D8000D36843F48013D360BAE7D36843F4801345
:104D9000D360C6E70010024000700040D36843F4BF
:104DA0008013D360CEE7D36843F48033D360DAE76F
:104DB000F0B583B0002362E085685E000324B44050
:104DC00025EA0405CC68B4402C438460446824EA96
:104DD0000C0C4C68C4F300149C4044EA0C0444607E
:104DE0005EE0DD08083550F8256003F007044FEA5F
:104DF000840C0F2404FA0CF426EA040E0C6904FA5D
:104E00000CF444EA0E0440F8254060E0052400E07C
:104E1000002404FA0EF42C430CF1020C554D45F815
:104E20002C40554CA568D44325EA02064F6817F478
:104E3000801F01D042EA05064F4DAE60ED6804EADE
:104E400005064F6817F4001F01D042EA05064A4DD7
:104E5000EE606D6804EA05064F6817F4003F01D064
:104E600042EA0506444D6E602D682C404E6816F4EB
:104E7000803F01D042EA05043F4A146001330A68CA
:104E800032FA03F474D04FF0010C0CFA03FC1CEA64
:104E90000202F3D04C6804F00304013C012C8BD9CE
:104EA0004C6804F00304032C0CD0C4685D004FF080
:104EB000030C0CFA05FC24EA0C0C8C68AC4044EAA8
:104EC0000C04C4604C6804F00304022C89D004680C
:104ED0004FEA430E4FF0030C0CFA0EFC24EA0C0CC4
:104EE0004C6804F0030404FA0EF444EA0C04046071
:104EF0004C6814F4403FC1D0204C256E45F00105AC
:104F00002566246E04F001040194019C4FEA930C81
:104F10000CF10205174C54F8255003F003044FEA36
:104F2000840E0F2404FA0EF425EA0405B0F1904F24
:104F30003FF46EAF124CA04212D004F58064A04240
:104F400010D004F58064A0420ED004F58064A04225
:104F50000CD004F58064A0423FF458AF062458E713
:104F6000012456E7022454E7032452E7042450E7BF
:104F700003B0F0BD000001400004014000100240F9
:104F8000000400480AB181617047816270470000E7
:104F9000002836D13E4B1B6803F4C063B3F5806F25
:104FA00008D03B4AD2F8803023F48073C2F88030B6
:104FB00000207047364AD2F8803023F48073C2F85C
:104FC0008030136823F4C06343F400731360314BE3
:104FD0001B68322202FB03F32F4AA2FB03239B0C24
:104FE000013300E0013B2A4A526912F4806F01D07C
:104FF000002BF7D1264B5B6913F4806F44D100205E
:105000007047B0F5007F08D0214A136823F4C063CD
:1050100043F480631360002070471D4B1B6803F44A
:10502000C063B3F5806F08D0194AD2F8803043F4DA
:105030008073C2F8803000207047154AD2F8803063
:1050400043F48073C2F88030136823F4C06343F4E0
:10505000007313600F4B1B68322202FB03F30E4AEE
:10506000A2FB03239B0C013300E0013B084A526979
:1050700012F4806F01D0002BF7D1054B5B6913F45C
:10508000806F03D1002070470320704703207047D2
:1050900000700040D400002083DE1B43074AD36821
:1050A00023F4E0631B041B0C000200F4E0600343E4
:1050B00043F0BF6343F40033D360704700ED00E07A
:1050C00000B5194BDB68C3F30223C3F1070CBCF135
:1050D000040F28BF4FF0040C03F1040EBEF1060FBD
:1050E00018D9033B4FF0FF3E0EFA0CFC21EA0C01ED
:1050F00099400EFA03F322EA0303194300280BDB5D
:105100000901C9B200F1604000F5614080F8001368
:105110005DF804FB0023E5E700F00F000901C9B2C8
:10512000024B1954F4E700BF00ED00E014ED00E07D
:10513000002807DB00F01F02400901239340024AC8
:1051400042F82030704700BF00E100E00138B0F1C4
:10515000807F0BD24FF0E0235861054AF02182F89E
:1051600023100020986107221A61704701207047C0
:1051700000ED00E030B583B000230193002800F07B
:1051800007810446C36D13B323689A6812F0005F69
:1051900005D09A6822F0204222F03F029A602268ED
:1051A000936813F0805F1FD1936823F0104323F0BE
:1051B0003F0343F080539360764B1B689B09764A0C
:1051C000A2FB03239B0901335B00019309E0FCF779
:1051D000E3FA0023236684F85830D5E7019B013BAE
:1051E0000193019B002BF9D12268936813F0805F33
:1051F00040F09680E36D43F01003E365236E43F0C7
:10520000010323660120936813F0040300D00123F7
:10521000E16D11F0100F40F0B480002B40F0B18030
:10522000E36D23F4817343F00203E365936813F0A5
:10523000010F15D14FF0A0439B6813F0010300D07C
:105240000123564A926812F0010200D00122134352
:1052500006D1636852498A6822F47C1213438B603A
:10526000627FE36B43EA4233E2681343A26813436D
:1052700094F8242043EA0243012A53D0E26A22B17F
:1052800002F47872216B0A4313432168CD68454AC2
:105290002A401343CB602268136923F04063616B9B
:1052A0000B4313612268936813F0080300D00123B5
:1052B0003BBB217F94F838305B0043EA8131D368EF
:1052C00023F4804323F002030B43D360236973B3B9
:1052D0002268136943F4803313612268D2F8C03026
:1052E00023F47F5323F03F0321690B43C2F8C030FE
:1052F00094F84030012B29D02268136923F0010370
:1053000013616369012B33D02268136B23F00F0301
:105310001363E36D23F0030343F00103E36535E01A
:10532000002070E7A26A013A43EA4243A6E72268F6
:10533000136923F4803313612268D2F8C03023F458
:105340007F5323F03F03C2F8C030D1E721680B69D7
:1053500023F4FF6323F00403626CA56C2A43E56C1D
:105360002A43256D2A43134343F001030B61C8E729
:1053700021680B6B23F00F03226A013A13430B637E
:10538000C7E7E36D43F01003E365012003B030BDD0
:105390000120FBE7D4000020632D3E0500010050F2
:1053A000000300500740F0FFF0B583B000220192E7
:1053B00090F85820012A00F05E820346012280F80E
:1053C00058200568A86810F0040F09D0DA6D42F083
:1053D0002002DA650120002283F8582003B0F0BDD6
:1053E0004C683035220A920002F00C02A85804F0F2
:1053F0001F0E1F2404FA0EF420EA04000C68C4F304
:10540000846C0CFA0EFC40EA0C00A8501868826804
:1054100012F0040200D00122846814F0080400D0C5
:105420000124002A50D1002C4ED18D68B5F1004FD7
:1054300000F082800F6814307A0E920002F00402AD
:105440008658C7F3045E4FF0070C0CFA0EFC26EAF0
:105450000C0C05FA0EF54CEA0505855018684269F2
:1054600022F0004242614D691868C268C2F3C1026D
:10547000520005FA02F20E69042E75D0603050F821
:105480002670A84D3D400F6807F0F8473A43154392
:1054900045F0004540F826501A680E698869603268
:1054A00052F8265025F08075284342F826001A68E5
:1054B0000D69087F012854D0603252F8250020F091
:1054C0000070044342F825401868826812F0010F0A
:1054D00017D10A68CD68D0F8B040C2F3120C24EAA4
:1054E0000C0405F0180C904D25FA0CF52A40C2F377
:1054F00012022243C0F8B020C8688C4A904200F0E3
:105500009B800A688A490A4200F0AD81894989680E
:1055100001F0E070884CA24200F05C81874CA2420E
:1055200000F05881864CA24200F07A81854CA2425C
:1055300000F0888100204EE70D6814306A0E92005A
:1055400002F004028658C5F30455072707FA05F54B
:1055500026EA050585501868426942F0004242611A
:1055600081E74FF00074A7E7026E046EC4F3846411
:105570000A68C2F3120585BBC2F38462944234D038
:105580001C68626E606EC0F384600A68C2F3120524
:1055900085BBC2F38462904234D01C68A26EA06EB8
:1055A000C0F384600A68C2F3120585BBC2F384624B
:1055B000904234D01C68E26EE06EC0F384600A68EA
:1055C000C2F3120585BBC2F3846290427FF47CAFC4
:1055D000E26E22F00042E26676E792FAA2F212B19F
:1055E000B2FA82F2CAE72022C8E7026E22F0004235
:1055F0000266C5E792FAA2F212B1B2FA82F2CAE7E3
:105600002022C8E7626E22F000426266C5E792FA85
:10561000A2F212B1B2FA82F2CAE72022C8E7A26E61
:1056200022F00042A266C5E792FAA2F212B1B2FAE3
:1056300082F2CAE72022C8E71C680A68C2F3120592
:10564000002D38D1900E013000F01F0009288CBFCA
:1056500000200120002877D0002D3BD1900E013092
:10566000800600F0F840002D40D1960E013606F07D
:105670001F070126BE403043002D45D1920E013256
:1056800002F01F0202EB420212050243886804F195
:105690001406550EAD0005F004057459C2F304520A
:1056A0004FF0070C0CFA02FC24EA0C0C90404CEA78
:1056B0000000705125E792FAA2F048B1B0FA80F0EC
:1056C000013000F01F0009288CBF00200120C1E735
:1056D0002020F5E792FAA2F030B1B0FA80F0013064
:1056E000800600F0F840BEE72020F8E792FAA2F624
:1056F00046B1B6FA86F6013606F01F06012707FA0C
:1057000006F6B8E72026F6E792FAA2F242B1B2FA1C
:1057100082F2013202F01F0202EB42021205B4E7EC
:105720002022F6E700F0FF03FFFF070000007F40A4
:105730000000088000030050000021C31000C0904A
:10574000000052C7000084CBCDB9900E0130800616
:1057500000F0F840FDB9960E013606F01F0701264D
:10576000BE4030432DBB920E013202F01F0202EB0D
:1057700042021E3A120542F00072024386E792FA94
:10578000A2F030B1B0FA80F00130800600F0F840AD
:10579000E0E72020F8E792FAA2F646B1B6FA86F6DC
:1057A000013606F01F06012707FA06F6D9E720267C
:1057B000F6E792FAA2F25AB1B2FA82F2013202F09C
:1057C0001F0202EB42021E3A120542F00072D4E7B9
:1057D0002022F3E711F4000F7FF4A4AE1A68B2F1AF
:1057E000A04F01D00020F6E540F4000023498A686C
:1057F00022F0E07210438860214A12689209214920
:10580000A1FB02129209013202EB420292000192C4
:10581000019A1AB1019A013A0192F9E70020DAE5FA
:1058200011F0807F7FF482AE1968174A91421CD034
:1058300040F0807011498A6822F0E072104388605D
:105840000020C8E511F4800F11D119680E4A914269
:105850000FD040F480020948816821F0E0710A43CA
:1058600082600020B7E50020B5E50020B3E5002008
:10587000B1E50020AFE50220B0E500BF0003005015
:10588000D4000020632D3E050001005090F8582000
:10589000012A7FD010B49DB00346012280F8582021
:1058A0000022189219920068B0F1A04F39D000225E
:1058B0000192019A002A37D0926812F0040200D0B7
:1058C0000122806810F0040F54D1002A52D10A68D6
:1058D000002A32D0304CA26822F46042486893F823
:1058E00038C040EA4C300243A2604FF0A0429268B8
:1058F00012F0010200D001222848806810F0010057
:1059000000D00120024341D1234CA26822F47162ED
:1059100022F00F020868896801430A43A260002050
:105920002DE01E4A0192C4E7DA6D42F02002DA65EA
:10593000002283F85820012024E017498A6822F4C5
:1059400060428A604FF0A042926812F0010200D0DB
:1059500001221249896811F0010100D001210A4396
:1059600016D10D498A6822F4716222F00F028A6012
:10597000002004E0DA6D42F02002DA650120002206
:1059800083F858201DB05DF8044B70470020F6E7FF
:105990000020F4E70220704700030050000100508F
:1059A00070B110B50446037933B10223237100208E
:1059B00020610123237110BD4371FBF7CFFFF4E792
:1059C00001207047002800F0FC802DE9F0410C46D2
:1059D00015460646002900F0F6804379012B00F0B9
:1059E000F48001234371022303718B68042B17D0C9
:1059F000E369012B5FD03368DF6B05F010050723E7
:105A0000AB4027EA0307A369012B61D0022B00F00A
:105A1000BE806369002B40F0BD804FF0010859E063
:105A2000FEF732FC07469DB133685A6B002A3FDA15
:105A3000FEF72AFCC01B0128F6D933685B6B002BEC
:105A4000F2DA336943F008033361032030719CE0DC
:105A500033685A6B12F4004F10D0FEF715FCC01BD0
:105A60000128F5D933685B6B13F4004FF0D033692C
:105A700043F0080333610320307186E0626A1A64E0
:105A80003068826C05F0100140F2FF338B4022EA4F
:105A90000302A36A8B401A4382643068C36CFF22FE
:105AA0008A4023EA0203E26A8A401343C3649FE701
:105AB000626A5A64E4E731688A6B05F010001F23BC
:105AC000834022EA0302236A834013438B6392E7F5
:105AD0004FF00008A3686269134343EA08034FF4D8
